:020000040800F2
:10000000480B00208D0200080504000807040008C2
:100010000B0400080F04000813040008000000008F
:1000200000000000000000000000000019040008AB
:1000300017040008000000001B0400081D0400084D
:100040004504000847040008490400084B04000860
:100050005D0400085F0400086104000873040008E0
:100060008B0400089D040008AF040008C7040008C2
:10007000C9040008CB040008CD040008CF04000820
:10008000D1040008D3040008D5040008F3040008D4
:10009000F5040008F7040008F9040008FB04000850
:1000A0005D0500085F050008CB050008CD050008C8
:1000B000CF050008FF050008150600082106000806
:1000C0002306000825060008270600082906000860
:1000D0002B0600082D060008570600086D060008CC
:1000E00089060008BD060008BF060008C106000812
:1000F000C3060008C5060008C7060008C9060008B0
:10010000E7060008E9060008EB060008ED0600080F
:10011000EF060008F1060008F3060008F5060008DF
:10012000F7060008F9060008FB060008FD060008AF
:1001300000F002F800F05CF80AA090E8000C82449D
:100140008344AAF10107DA4501D100F051F8AFF27A
:10015000090EBAE80F0013F0010F18BFFB1A43F0A5
:100160000103184798850000B88500000A444FF045
:10017000000C10F8013B13F0070408BF10F8014B06
:100180001D1108BF10F8015B641E05D010F8016B4B
:10019000641E01F8016BF9D113F0080F1EBF10F8AF
:1001A000014BAD1C0C1B09D16D1E58BF01F801CBD2
:1001B000FAD505E014F8016B01F8016B6D1EF9D555
:1001C0009142D6D37047000000230024002500266A
:1001D000103A28BF78C1FBD8520728BF30C148BFAA
:1001E0000B6070471FB508F0D6F81FBD10B510BDE5
:1001F00006F064FE1146FFF7F5FF00F09DF806F0EB
:1002000082FE03B4FFF7F2FF03BC06F089FE000094
:1002100030BF704720BF704740BF7047BFF36F8F3C
:100220007047BFF34F8F7047BFF35F8F704701DF99
:100230007047EFF31480704780F31488BFF36F8F1B
:100240007047EFF30980704780F309887047EFF338
:100250000880704780F30888704762B6704772B6AE
:100260007047EFF31080704771B6704761B6704702
:10027000EFF31380704780F311887047EFF312801B
:10028000704740BA704700BA704700000348004703
:1002900003480449044A054B704700003101000837
:1002A00048030020480B0020480700204807002092
:1002B00010B5012405F0E0FA200405F0FCFA05F081
:1002C00039FB0446012C24D1102004F08FFC0220BD
:1002D00004F076FC002005F076FB002005F085FB9D
:1002E000A00205F079FB4FF4E011200405F04EFB6D
:1002F000012005F057FB00BF392005F0FFFA002868
:10030000FAD0022005F051FB00BF05F057FB08288A
:10031000FBD10121084605F01CFC10BD10B50420DE
:1003200005F042FD2C4805F053FD012005F054FD79
:10033000012005F06CFD10BDFFF7F0FFFFF7B8FFDF
:1003400000F0FEFE00F083FB24A000F045FB00F06F
:100350000BFF00F010FA00F0BBFB00F04FFE03F0C3
:1003600013FD2248007808B104F0AEF80A2000F02E
:1003700038FE01F01BFA03F078FC01F029F901F0D6
:10038000C2F803F0FBFF1AA000F026FB0D2000F0DE
:100390002DFA0A2000F02AFA01E002F0D6FEFCE76E
:1003A00010B5044616480460012005F015FD00BF95
:1003B000134800680028FBD1801E05F00DFD0020C9
:1003C00005F00AFD10BD0E48006820B10C48006819
:1003D000401E0B4908607047401901007379732073
:1003E00073746172206C6F616421000088000020CA
:1003F000737973206C6F6164206F6B2120202F0054
:1004000000000020704700BFFEE700BFFEE700BF0E
:10041000FEE700BFFEE770477047704710B5012048
:10042000B7490870B7480078012805DAB548007860
:10043000401CB449087004E00020B249087000F084
:1004400094FE10BD70477047704710B5012005F04D
:100450007FFC10B10120AC49086010BD70477047A7
:1004600010B5012004F087FB10B1012004F094FBCB
:1004700010BD10B5022004F07EFB28B10120A34975
:100480000870022004F088FB10BD10B5042004F0B1
:1004900072FB10B1042004F07FFB10BD10B50820E2
:1004A00004F069FB10B1082004F076FB10BD10B514
:1004B000102004F060FB28B1002003F0A6FF1020FC
:1004C00004F06AFB10BD7047704770477047704773
:1004D0007047704710B54FF408718D4804F0A9FAC1
:1004E00030B14FF408718A4804F0B5FA03F0ABFC60
:1004F00010BD704770477047704710B5202004F05A
:100500003AFB28B1012003F080FF202004F044FBD7
:10051000402004F030FB68B1022003F076FF7D48F4
:10052000006880F480507C49C1F80C0C4FF040000A
:1005300004F032FB802004F01EFB28B1032003F0FE
:1005400064FF802004F028FB4FF4807004F013FB5C
:1005500018B14FF4807004F01FFB10BD704710B548
:1005600001216E4806F012FA70B301216B4806F0C3
:100570001EFA6B480078B8B96A480078A0B96A4892
:100580000188664806F0D3F968480188634806F098
:10059000D0F967480188614806F0CDF965480188BF
:1005A0005E4806F0CAF90FE001215C4806F0BFF989
:1005B00001215A4806F0BDF90121584806F0BBF95F
:1005C0000121564806F0B9F910BD7047704710B5C3
:1005D0000121880706F0DAF980B10121880706F0C9
:1005E000E6F9554800780A2805DA53480078401C97
:1005F0005149087002E000204F49087010BD10B545
:1006000001214E4806F0C2F918B101214B4806F00D
:10061000CEF910BD10B50121494806F0B7F910BD5B
:1006200070477047704770477047704710B540F289
:100630002551444806F037FB01280BD135480068A6
:1006400080F002003449C1F80C0C40F225513D48BD
:1006500006F05BFB10BD10B540F225513A4806F09C
:1006600022FB012801D103F009FD10BD10B540F2B5
:100670002551364806F017FB012804D140F22551D8
:10068000324806F042FB10BD10B54FF4006004F094
:1006900072FA30B10B2000F05DF84FF4006004F006
:1006A0007BFA4FF4805004F066FA30B10C2000F071
:1006B00051F84FF4805004F06FFA10BD7047704746
:1006C000704770477047704710B54FF40871204865
:1006D00004F0AFF930B14FF408711D4804F0BBF9D4
:1006E00003F0B1FB10BD704770477047704770470B
:1006F00070477047704770477047704770470000F9
:10070000440000200400002020000020BB00002046
:10071000002801400C0C014000000140002C014069
:1007200082000020020100206600002060000020FE
:10073000640000206200002004010020000400404A
:1007400000080040003801400044004000480040DC
:10075000003C014010B504460120A04081B2214870
:1007600004F0C1FD18B100201F49087002E001200B
:100770001D49087010BD1FB54FF48050ADF80C0036
:1007800004208DF80F0003A9164804F01BFD012179
:10079000042005F0DEF90C21002004F017FE4FF4D0
:1007A0008050009000208DF8040010208DF8050086
:1007B00001208DF80600684604F061F94FF4C0602E
:1007C00004F079FE28208DF8080002208DF8090039
:1007D00001208DF80A008DF80B0002A804F070FECD
:1007E0001FBD0000000801400600002010B50446AF
:1007F000B248048000BF8021B048001F06F053FAC1
:100800000028F8D010BD2DE9F0410546B826A520F6
:10081000FFF7ECFF5A20FFF7E9FF1620FFF7E6FF8E
:10082000A220FFF7E3FF00242CE0A54931F91410C2
:1008300035F91420881800EBD071491009B225F859
:10084000141035F814009E4921F8140035F91400ED
:10085000002806DA35F91400C0F5004000B225F88A
:10086000140035F81400C0F307273846FFF7BEFF21
:100870003E4435F81400C7B23846FFF7B7FF3E4490
:10088000601CC4B2092CD0DBF0B2FFF7AFFFAA2086
:10089000FFF7ACFFBDE8F08110B50446207887492A
:1008A000088000BF80218548001F06F0FCF9002861
:1008B000F8D010BD2DE9F05F814600270026B04634
:1008C000B246B346B9F1000F0BDA7EA0FFF7E4FFA2
:1008D000484607F010F821F00041044606F0AEFF4C
:1008E000814642F2107099FBF0F087B242F210702C
:1008F00099FBF0F100FB119086B24FF47A7096FBF1
:10090000F0F100FB11601FFA80F8642098FBF0F111
:1009100000FB11801FFA80FA0A209AFBF0F100FB1D
:1009200011A01FFA80FB4FF47A7096FBF0F086B2AC
:10093000642098FBF0F01FFA80F80A209AFBF0F090
:100940001FFA80FA27B160490968C819FFF7A4FFA8
:1009500056EA070004D05C4909688819FFF79CFF34
:1009600048EA0700304305D05749096801EB080001
:10097000FFF792FF4AEA08003843304305D0524956
:10098000096801EB0A00FFF787FF4F49096801EB8F
:100990000B00FFF781FF0D20FFF728FF0A20FFF76C
:1009A00025FFBDE8F09F10B504460BE014F8010BDD
:1009B0004249088000BF80214048001F06F073F9BB
:1009C0000028F8D020780028F0D10D20FFF70EFF86
:1009D0000A20FFF70BFF10BD10B504460BE014F81A
:1009E000010B3649088000BF80213448001F06F003
:1009F0005AF90028F8D020780028F0D10D20FFF710
:100A0000F5FE0A20FFF7F2FE10BD10B504460BE01C
:100A100014F8010B2949088000BF80212748001FD6
:100A200006F041F90028F8D020780028F0D110BD58
:100A300070B504460D46002600BF05E014F8010B12
:100A4000FFF7D4FE701CC6B2AE42F7DB70BD00B536
:100A500085B00121880305F07CF80121082005F00C
:100A600078F80121042004F07CFC4020ADF800005F
:100A700003208DF8020018208DF803006946134802
:100A800004F0A0FB4FF47A3001900020ADF808008C
:100A9000ADF80A00ADF80C00ADF810000820ADF874
:100AA0000E0001A90548001F05F0CDFF01210348F4
:100AB000001F06F036F805B000BD00000438014004
:100AC0003A0100202D00000014000020000C01401D
:100AD00008B50121082005F03CF84FF44070ADF84E
:100AE000000010208DF8030003208DF802006946F5
:100AF000FC4804F067FB08BD10B5FB48006820F017
:100B0000F000FA49C1F8040C0846D0F8040C40F093
:100B10003000F54908604FF00100F5490860F549DB
:100B2000C1F8A0014FF0020000F041FA0020F149A5
:100B3000C1F8A401022000F03AFA0020ED49C1F802
:100B4000A00110BD10B5E848006820F0F000E749AA
:100B5000C1F8040C0846D0F8040C40F03000E2491B
:100B600008604FF00000E4490860E249C1F8A401C0
:100B70004FF0020000F01BFA0120DF490860DD4958
:100B8000C1F8A4014FF0020000F011FA10BD10B539
:100B90000024D548006820F0F000D449C1F8040CC6
:100BA0000846D0F8040C40F08000CF4908604FF0B0
:100BB0000100CF49086000F0FAF90120CD49C1F8E1
:100BC000A00100F0F4F90AE0601CC4B2322C03DD8D
:100BD000FFF7B8FF012010BD012000F0E8F9C74879
:100BE00000680028F0D1C449086000BFF3E710B5E1
:100BF0000020C1490860BD48D0F8040C20F0F00086
:100C0000BA49C1F8040C0846D0F8040C40F0300092
:100C1000B54908604FF00000B649C1F8A4014FF093
:100C2000010000F0C4F90120B249C1F8A00100F0B0
:100C3000BEF90020AF49C1F8A00110BD10B50020D9
:100C4000AD490860A948D0F8040C20F0F000A7498D
:100C5000C1F8040C0846D0F8040C40F03000A2495A
:100C600008604FF00100A349C1F8A40100F09FF90A
:100C70000120A049C1F8A00100F099F900209D4988
:100C8000C1F8A00110BD70B504469748006820F077
:100C9000F0009649C1F8040C0846D0F8040C40F066
:100CA0003000914908604FF0000093490860054604
:100CB00019E0E0098E4908604FEA44604FEA106489
:100CC0004FF0010000F073F901208A49C1F8A0013A
:100CD00000F06DF90020884908604FF0010000F035
:100CE00066F9681CC5B2082DE3DB70BD70B505461A
:100CF00000247D48006820F0F0007C49C1F8040C15
:100D00000846D0F8040C40F08000C1F8040C4FF005
:100D1000000616E00020784908604FF0010000F05E
:100D200046F901207349C1F8A0016006040E73481A
:100D3000006808B1601CC4B2012000F038F9701CD2
:100D4000C6B2082EE6DB15B1FFF751FF01E0FFF751
:100D500075FF204670BD70B505460E460024FFF7AE
:100D6000CBFE2846FFF78FFF641CFFF710FF3046CD
:100D7000FFF789FF641CFFF70AFFFFF7BDFE681C41
:100D8000C0B2FFF780FF641CFFF701FF0020FFF7F0
:100D9000ADFF0446FFF7D6FE204670BD2DE9F041B9
:100DA00080460F4615461E460024FFF7A5FE404626
:100DB000FFF769FFFFF7EBFE3846FFF764FFFFF729
:100DC000E6FEFFF799FE08F10100C0B2FFF75BFFF6
:100DD000FFF7DDFE00BF0DE0681EA04204D0012039
:100DE000FFF784FF305503E00020FFF77FFF305509
:100DF000601CC4B2AC42EFDBFFF7A4FE2046BDE8A6
:100E0000F0812DE9F04107460D4616460024FFF714
:100E100073FE781CC0B2FFF736FFFFF7B8FE00BFC5
:100E20000DE0681EA04204D00120FFF75FFF30559F
:100E300003E00020FFF75AFF3055601CC4B2AC42FB
:100E4000EFDBFFF77FFE2046BDE8F0812DE9F041A2
:100E500080460D4616461F460024FFF74DFE4046CD
:100E6000FFF711FFFFF793FE2846FFF70CFFFFF790
:100E70008EFE00BF06E0385DFFF705FFFFF787FE37
:100E8000601CC4B2B442F6DBFFF75CFE0120BDE893
:100E9000F08170B505460C46FFF72EFE2846FFF799
:100EA000F2FEFFF774FE2046FFF7EDFEFFF76FFE40
:100EB000FFF748FE012070BD70B505460E4614468A
:100EC00031462846FFF747FF2070012070BD37B537
:100ED00004460D4602AB012229462046FFF7B6FF25
:100EE0003EBD0000000C0140040C01400000014028
:100EF000A481214200802142A081214224812142FB
:100F00002DE9F8430746884614461D46089E6A4662
:100F100041463846FFF7D0FF38B3601CFF2101FA85
:100F200000F0C4F108012944491EFF220A41104380
:100F300000F0FF09C5F1080006FA00F0C6B2C4F1DE
:100F4000070046FA00F0C6B29DF8000000EA09006A
:100F500000909DF80000304300909DF8002041462D
:100F60003846FFF7B4FFBDE8F8830020FBE7F8B58B
:100F700006460F4614461D466A4639463046FFF778
:100F80009BFF2DB10120A0409DF80010084305E013
:100F90000120A0409DF8001021EA0000C0B200909E
:100FA0009DF8002039463046FFF791FFF8BD00213B
:100FB00007E0062201E0531EDAB2002AFBDC4A1CDD
:100FC00091B28142F5DB704730B50446002505E05B
:100FD0004FF47A70FFF7EBFF681C85B2A542F7DB90
:100FE00030BD30B50446002504E06420FFF7ECFF77
:100FF000681C85B2A542F8DB30BD000000B589B0A1
:101000000121042004F0A5FD0121C80204F0A1FD86
:101010004FF47060ADF8200018208DF823000320F5
:101020008DF8220008A9404804F0CCF819208DF86A
:101030001C0000208DF81D0001208DF81E008DF889
:101040001F0007A804F03CFA48F6A040ADF81400D1
:101050000120ADF810000020ADF81600ADF8120028
:1010600004A9324804F06DFF6020ADF800000120B3
:10107000ADF802002E48008800EBC0008004000C90
:10108000ADF806000020ADF80800ADF80A004FF4F6
:101090008070ADF80C000020ADF80E0069462348C2
:1010A00004F068FF0120ADF802002248008800EB40
:1010B000C0008004000CADF8060069461B4804F02F
:1010C00090FF0120ADF802001B48008800EBC00033
:1010D0008004000CADF806006946144804F0C7FF10
:1010E00000214FF0804005F0D4FA0120ADF8020055
:1010F0001248008800EBC0008004000CADF8060028
:1011000069460A4804F0F7FF01221146074805F036
:1011100098F90121054805F079F90121034805F006
:1011200081F909B000BD000000080140002C014019
:1011300064000020620000206000002066000020A3
:1011400008B50121082004F004FD43F20600ADF8C3
:10115000000010208DF8030003208DF8020069467E
:10116000674804F02FF808BD704710B5654800784F
:101170006549097888421BD06348007800EB40003D
:10118000624901EB40008088614908800020614984
:10119000088061490870614908706148006820F062
:1011A00002006049C1F80C0C574800785549087096
:1011B0005D48007800B3574800885549098888423F
:1011C00005DA54480088401C524908803FE000205E
:1011D0005049088055480078E8B95148006840F007
:1011E00002005049C1F80C0C4B48007828B14A481D
:1011F0000078401E4849087029E001204B490870DA
:101200004148007800EB4000404901EB4000408835
:10121000414908701BE04248006880F002004149E3
:10122000C1F80C0C3D48007828B13C480078401EBD
:101230003A4908700BE000203C49087032480078B9
:1012400000EB4000314931F810003449087038484B
:1012500000780E2804DA36480078401C34490870BB
:1012600034480088C72805DA32480088401C3149D4
:1012700008800AE000202F4908802F48007820B11C
:101280002D480078401E2C49087001202B49087019
:101290002B480078312805DA29480078401C284975
:1012A000087004E000202649087003F087F82548FC
:1012B0000088F92805DA23480088401C2149088065
:1012C00005E000201F49088001201F49087002F036
:1012D000DFF91E480078012810D11D480088B0F5BC
:1012E000F97F05DC1A480088401C1949088005E090
:1012F00000201749088001201649087010BD000021
:10130000000C0140280000206B000020EE85000842
:101310002C0000202600002031000020300000209A
:101320000C0C0140000001406C0000202F00002048
:101330008700002036000020850000208400002067
:101340002E0000202A0000208300002082000020C0
:101350003400002032000020704730B503461446A8
:1013600003E034F8020B23F8020B0800A1F1010599
:10137000A9B2F6D1012030BD00B5ADF6040DB74AD3
:101380000C2101A8FFF7E9FF182201A9B44805F0D4
:10139000CDFC0DF6040D00BD2DE9F04104460E46CE
:1013A000154603F02EFC284603F06DFC0746042F7B
:1013B00004D003F02CFC0020BDE8F0810CE0218873
:1013C000284603F024FD0746042F03D003F01FFC3A
:1013D0000020F1E7AD1CA41C3000A6F101018EB283
:1013E000EDD103F014FC0120E6E700B5ADF6040DE5
:1013F00018229B4901A805F099FC984A0C2101A8E4
:10140000FFF7CAFF0DF6040D00BD00B587B0162129
:1014100001A805F024FD93480068009092480088D8
:1014200080B2ADF802009148008880B2ADF80600A5
:101430008F48008880B2ADF80A008E48008880B2DC
:10144000ADF804008C48008880B2ADF808008B48E5
:10145000008880B2ADF80C008948008880B2ADF8F1
:101460000E008848008880B2ADF8100086480088D9
:1014700080B2ADF812008548008880B2ADF8140043
:101480008348008880B2ADF816008248008880B298
:10149000ADF818003320ADF800007F4A0D216846F2
:1014A000FFF77AFF07B000BD00B587B0162101A88D
:1014B00005F0D5FC6B48001D00680090764A0D21B0
:1014C0006846FFF74AFFBDF80E0000B26C4908807D
:1014D000BDF8100000B26B490880BDF8120000B2E0
:1014E00069490880BDF8140000B268490880BDF859
:1014F000160000B266490880BDF8180000B26549C0
:10150000088007B000BD2DE9F04F87B0162101A873
:1015100005F0A5FC53480830006800905E4A0D2194
:101520006846FFF71AFFBDF80000332849D1BDF81F
:10153000020000B24C490880BDF8060000B24B49D9
:101540000880BDF80A0000B249490880BDF80400CF
:1015500000B248490880BDF8080000B2464908803A
:10156000BDF80C0000B2454908804348B0F90000BE
:1015700006F0C1F904460D463C48B0F9000006F0FB
:10158000BAF9064622462B4606F05CFB80468946A1
:101590003848B0F9000006F0AEF904460D4632486E
:1015A000B0F9000006F0A7F9064622462B4606F0E1
:1015B00049FB824642464B4605F0E8FF374A03C2E4
:1015C00003E002F079F8FFF720FF07B0BDE8F08FE5
:1015D00010B54FF48051324803F085FEE8BB314826
:1015E000006880F480503049C1F80C0C0846D0F8EF
:1015F0000C0C80F40050C1F80C0C0846D0F80C0C10
:1016000080F00400C1F80C0C28A0FFF7E5F900BF3A
:101610004FF48051224803F066FE0028F8D002F013
:101620004BF8FFF7F2FE2AA0FFF7D6F900F0CCFB4B
:101630001C48006840F480501B49C1F80C0C084657
:10164000D0F80C0C40F40050C1F80C0C0846D0F84F
:101650000C0C40F00400C1F80C0C10BD00F80008A0
:101660007C02002008860008AE000020B0000020A8
:10167000B2000020B4000020B6000020B800002016
:101680005200002054000020560000205800002086
:101690005A0000205C00002000FC0008C800002068
:1016A000000801400C0C014000000140BFAABBFA39
:1016B000B3A3B0B4A3ACD6D8D6C34532524F4D2D48
:1016C000484D4335383833CAFDBEDD2020212F0078
:1016D000BFAABBFAB3A3B0B4A3ACD6D8D6C3453225
:1016E000524F4D2D6D707536303530CAFDBEDD2040
:1016F00020212F0038B50446032302226B21D0207D
:101700000094FFF7FDFB38BD38B5044602230422E0
:101710001B21D0200094FFF7F3FB38BD38B50446F9
:10172000022304221C21D0200094FFF7E9FB38BDDE
:1017300010B50446234606226B21D020FFF717FC84
:1017400010BD10B5FF4B01227521D020FFF726FBFD
:10175000FC48007810BD10B5FFF7F3FF682801D1F1
:10176000012010BD0020FCE710B5044623460522E9
:101770006A21D020FFF7FBFB10BD10B504462346BD
:1017800001223721D020FFF7F2FB10BD08B501215F
:10179000042004F0DEF90120ADF8000004208DF8EB
:1017A00003006946E84803F00DFD08BD10B5FFF7DA
:1017B000EDFF0120FFF79EFF0320FFF7A5FF0320A9
:1017C000FFF7ACFF0020FFF7B3FF0020FFF7CCFFCF
:1017D0000120FFF7D2FF012307223721D020FFF796
:1017E000C6FB002306223721D020FFF7C0FB0123D0
:1017F00005223721D020FFF7BAFB0123042237212D
:10180000D020FFF7B4FB012300223821D020FFF7BE
:10181000AEFB10BD10B50121CB4803F064FD08B943
:10182000012010BD0020FCE710B5FFF7F3FFF0B377
:10183000C44B0E223B21D020FFF7B0FAC1484078BC
:10184000C049097840EA012000B2C0490880BD487B
:10185000C078BC49897840EA012000B2BC490880C0
:10186000B848407AB749097A40EA012000B2B9493C
:101870000880B448C07AB349897A40EA012000B2AE
:10188000B5490880AF48407BAE49097B40EA01205A
:1018900000B2B2490880B2480078F0B3B149B1F95A
:1018A000001001EB4101AA4AB2F9002000E0B9E0C2
:1018B0008818C11700EB9171891009B2A94A1180EB
:1018C000A949B1F9001001EB4101A04AB2F9002089
:1018D0008818C11700EB9171891009B2A24A1180D2
:1018E000A249B1F900109F4AB2F90020C1EB621081
:1018F00006F02AFC04469E484168204606F088FD12
:101900009C4948609C49B1F90010974AB2F90020FF
:10191000C1EB621006F018FC00E042E00446944877
:101920000168204606F074FD80F00040914908608F
:101930009249B1F90010874AB2F90020C1EBA21018
:1019400006F002FC04468A48C168204606F060FDA5
:101950008849C8608A49B1F900107F4AB2F900206D
:10196000C1EBA21006F0F0FB044681480169204655
:1019700006F04EFD7F4908618249B1F90010774AAF
:10198000B2F90020C1EBA21006F0DEFB0446784855
:101990004169204606F03CFD80F0004075494861F1
:1019A00040E06B48B0F9000040117049088067487A
:1019B000B0F900004011704908806648B0F9000095
:1019C00080116E4908806448B0F9000080116C49AC
:1019D00008806248B0F9000080116A4908806348B5
:1019E000B0F9000006F0B0FB624908606248B0F947
:1019F000000006F0A9FB5F4948606048B0F90000AC
:101A000006F0A2FB5B4908615D48B0F9000006F0F2
:101A10009BFB5849C8605B48B0F9000006F094FB96
:101A20005449486110BD2DE9F05F0024A346FFF73B
:101A30003BFD4E48B0F900504F48B0F900604F48A8
:101A4000B0F900804E48B0F900904E48B0F900A0BF
:101A5000FFF7ACFE4CA0FEF7BFFF9EE1434AB2F990
:101A60000020511B01D40A4600E04A42012A01DD50
:101A7000012200E00022404BB3F90030981B01D452
:101A8000034600E04342012B01DD012300E0002377
:101A90001A4355D0BBF10A0F04DA0BF1010000F034
:101AA000FF0B3FE10A2400273BA0FEF795FF41A072
:101AB000FEF792FF4848006880F480504749C1F81B
:101AC0000C0C0846D0F80C0C80F40050C1F80C0C3B
:101AD0000846D0F80C0C80F00400C1F80C0C89E02A
:101AE000781C87B20120FFF77CFA3DA0FEF774FF57
:101AF0003D480078FEF7DEFE3B48007840B13648AE
:101B0000006840F002003549C1F80C0C40F22D1776
:101B1000052097FBF0F100FB117090B92E4800688A
:101B200080F480502D49C1F80C0C0846D0F80C0CFC
:101B300080F40050C1F80C0C0846D0F80C0C55E0AD
:101B4000DAE057E02C0100200008014040000020AE
:101B50003E0000203A000020380000203C00002019
:101B60005E0000204C0000204E00002052000020AB
:101B7000640100204C010020540000205800002087
:101B80005A0000205C000020535F363035305F7211
:101B900065616479210000004D50553630353020A4
:101BA0004441544120657272207468616E206D61F9
:101BB00078210000696620796F752077616E742046
:101BC0006368616E676520646174612C707265730F
:101BD00073206B65792100000C0C0140000001406E
:101BE0006B65793A000000000600002080F00400D8
:101BF000C1F80C0C0A2FFFF673AFD948006840F407
:101C00008050D849C1F80C0C0846D0F80C0C40F4B0
:101C10000050C1F80C0C0846D0F80C0C40F0040041
:101C2000C1F80C0CD0480078D8B10020CE4908701B
:101C3000CEA0FEF7D1FEFFF7E8FB0A20FFF7D1F9AF
:101C4000D2A0FEF7E2FED548B0F90000FEF732FE62
:101C5000D3A0FEF7DAFED648B0F90000FEF72AFE60
:101C600049E0CE480580D2480680D248A0F80080DE
:101C7000D148A0F80090D148A0F800A00120D04998
:101C80000870D0A0FEF7A8FEC0A0FEF7BEFE284652
:101C9000FEF710FEC148B0F90000FEF70BFEC0A031
:101CA000FEF7B3FE3046FEF705FEC148B0F900006E
:101CB000FEF700FEC9A0FEF7A8FE4046FEF7FAFDBB
:101CC000BC48B0F90000FEF7F5FDC8A0FEF79DFE88
:101CD0004846FEF7EFFDB848B0F90000FEF7EAFD10
:101CE000C6A0FEF792FE5046FEF7E4FDB348B0F9F9
:101CF0000000FEF7DFFD15E0601CC4B2052C11D119
:101D0000C2A0FEF769FEAFA0FEF766FE9FA0FEF739
:101D10007CFE2846FEF7CEFDA1A0FEF776FE3046FB
:101D2000FEF7C8FD052C27DABDA0FEF76EFE2046A3
:101D3000FEF7C0FDBDA0FEF768FE2846FEF7BAFD1F
:101D4000BDA0FEF762FE9548B0F90000FEF7B2FDB7
:101D5000BCA0FEF75AFE3046FEF7ACFDBCA0FEF775
:101D600054FE9348B0F90000FEF7A4FD0D20FEF7E5
:101D70003DFD0A20FEF73AFD00BFFFF74BFD0028AE
:101D8000FBD0FFF751FD0120FFF71EF974480068F2
:101D900080F002007349C1F80C0C052CFFF65EAE12
:101DA0006F48006840F002006E49C1F80C0C4FF01B
:101DB0000A00FFF716F90120814908701821A74889
:101DC00005F04DF8BDE8F09F2DE9F047002400270D
:101DD000FFF76AFB7148B0F900507548B0F9006030
:101DE0007448B0F900807448B0F900907348B0F9B5
:101DF00000A0FFF7DBFC9AA0FEF7EEFD9CE0674A2F
:101E0000B2F90020511B01D40A4600E04A42012ADF
:101E100001DD012200E00022654BB3F90030981B80
:101E200001D4034600E04342012B01DD012300E021
:101E300000231A431FD00A2F02DA781CC7B240E0F1
:101E40000A24AFF2AC20FEF7C7FD48A0FEF7C4FDA0
:101E5000FFF7DBFA4DA0FEF7D8FD5048B0F90000BF
:101E6000FEF728FD4EA0FEF7D0FD5148B0F9000066
:101E7000FEF720FD25E0601CC4B2052C21D14748A7
:101E800005804B4806804B48A0F800804A48A0F8DF
:101E900000904A48A0F800A00120494908705BA0C2
:101EA000FEF79AFD47A0FEF797FD38A0FEF7ADFDBF
:101EB0002846FEF7FFFC3AA0FEF7A7FD3046FEF7E6
:101EC000F9FC052C27DA56A0FEF79FFD2046FEF709
:101ED000F1FC56A0FEF799FD2846FEF7EBFC56A054
:101EE000FEF793FD2D48B0F90000FEF7E3FC55A086
:101EF000FEF78BFD3046FEF7DDFC55A0FEF785FDB5
:101F00002B48B0F90000FEF7D5FC0D20FEF76EFC63
:101F10000A20FEF76BFC00BFFFF77CFC0028FBD01B
:101F2000FFF782FC0120FFF74FF80D48006880F0B2
:101F300002000C49C1F80C0C052CFFF660AF0848F4
:101F4000006840F002000749C1F80C0C4FF00A008D
:101F5000FFF747F801201A490870BDE8F087000034
:101F60000C0C014000000140060000206532726F39
:101F70006D207772697465204D5055363035305F6D
:101F80004D6964206461746121000000416E6758EE
:101F90005F6D6964207573653A000000520000208F
:101FA000416E67595F6D6964207573653A00000082
:101FB00054000020580000205A0000205C0000203F
:101FC0005E0000204D505536303530207573652049
:101FD0006F6C642064617461210000004163635888
:101FE0005F6D6964207573653A0000004163635951
:101FF0005F6D6964207573653A0000004163635A40
:102000005F6D6964207573653A0000004D50553668
:102010003035302044415441206F6B2100000000D6
:1020200073616D655F646174613A0000416E675869
:102030005F6D69645A3A0000416E67585F6D69646C
:102040003A000000416E67595F6D69645A3A0000BA
:10205000416E67595F6D69643A00000064010020B9
:10206000535F363035305F72656164792153746136
:10207000722073657420735F363035305F6461742D
:102080006121000070477CB500240026FD2001F08E
:1020900025FFDF2001F022FF84F0220408260A2019
:1020A00001F01CFF304601F019FF86F00A004440A1
:1020B000FF48006806F028F8FE4988800020C880A4
:1020C00008460168009140680190002508E01DF86D
:1020D000050044401DF8050001F000FF681CC5B272
:1020E000082DF4D3204601F0F9FE7CBD002000BF8E
:1020F0000CE0F1490A5CF149095C02EB4101032261
:1021000091FBF2F1ED4A1154411CC8B20428F0DBF6
:102110007047EA488078322807DDE9480078C82807
:1021200003D10120E649087024E0E4488078322891
:1021300007DDE3480078C92803D10120E049087091
:1021400018E0DE488078322806DDDD48007818B9CE
:102150000120DC4908700DE0D8488078322809DA7F
:10216000C820D7490870D7480078012802D100203C
:10217000D4490870704710B5D348007806280DDDA3
:10218000CF480078012802D1FFF7B0FF03E0CB4829
:10219000C94909680160FFF7BCFF24E0CA4800781C
:1021A00008BBC7480078012806D1C920C449087077
:1021B0000020C649087006E0C1480078C92802D04E
:1021C0000020BF4908700120BE490870C04800784F
:1021D000BD490978884206D0BB480078BC490870E0
:1021E000BCA0FEF7F9FB10BD10B5BF480078012870
:1021F00004D10020BC49087002F0E1F9BB48007826
:1022000048B1FFF786FFBA48006880F00400B9497A
:10221000C1F80C0C28E0AA480078012806D1C92092
:10222000A74908700020A949087006E0A448007872
:10223000C92802D00020A2490870AFA0FEF7CCFB4D
:102240000120A0490870AA48006840F00400A9498C
:10225000C1F80C0C4FF00000AC4908704FF00100C1
:10226000A149087002F030F910BDB0F57A7F01DBAA
:1022700040F2E730012800DA012070470146081ECD
:1022800001DB024600E04242052A07DD002902DDAB
:10229000481F00B27047481D00B2FBE70020F9E775
:1022A00010B594B000201290119010900F909848A3
:1022B000008805F061FF7E4908609548008805F0B8
:1022C0005BFF94490D907A48006805F09DFF0C90E3
:1022D0000D9905F0CDFD90490E9005F037FE74493B
:1022E000086077480078C82801D1012000E000206C
:1022F0007349097809B9012100E0002108437ED023
:1023000000200F90109011901290844800210160DD
:1023100041608160C1608248016041608160C1604C
:102320008048016041608160C1607F480160416018
:102330008160C1607D48016041608160C1607C480E
:10234000016041608160C1607A48016041608160E4
:10235000C1607948016041608160C1607748016077
:1023600041608160C1607648016041608160C16008
:1023700074480088744908807448006865490D9065
:1023800005F042FF0E9005F0A3FE00B24949088017
:102390006E4840685F490D9005F036FF0E9005F0DD
:1023A00097FE00B243494880444840786849087025
:1023B0004248C0786749087040480078664908700C
:1023C0006648808965283BDA64488089401C6349F7
:1023D00088815E4840690E90084640680D900E99CD
:1023E00005F046FD5D49486008468089642827D18C
:1023F000962088815AA0FEF708FB584800E020E0AC
:1024000040680D9005F064FE0E90FEF753FA5348B5
:10241000406880F0004057490E9005F097FD5649FE
:1024200048610846406955490C9005F0EDFE0D9055
:1024300005F04EFE0E90FEF73DFA00204749486039
:10244000FEE31F480078012800D100E000201C496D
:102450000978C92901D1012100E00021084326D0D3
:1024600013480168464805F0D3FF4649009005F03F
:102470006DFD019005F0D0FC434A444BCDE90201CB
:1024800005F0A0FA4FF03332414BCDE9040104F0DE
:10249000C3FFCDE9060104F08DFF3E4908604FF00F
:1024A0007E513C4801603C490148006876E0FEE30B
:1024B000780000209C0000201E0100207C010020EC
:1024C0008E0000206B00002005010020810000200C
:1024D0008900002050504D20636F6E6E656374203C
:1024E0006572722100000000880000208500002035
:1024F0000C0C0140000001407769666920636F6E33
:102500006E656374206572722100000086000020F1
:102510007C000020000020410000304188010020A4
:1025200098010020B8010020A8010020C801002067
:10253000D8010020E8010020180200202802002015
:1025400008020020BE0000206E000020940200203F
:1025500068000020690000206A000020F8010020C7
:10256000636F72725F363035302E41636347696541
:10257000723A00000000C8426401002000007A4462
:102580000000D743000048429A9999999999C93F08
:102590003333E33F740000200000B94305F000FE30
:1025A00014D2FF49FF48006805F001FF0ED2FD4834
:1025B0000168FD4805F02CFFFC49069005F024FE5B
:1025C000079005F0A1FDFA49087002E00020F849E3
:1025D0000870F8480078012800D100E00020F64992
:1025E0000978084375D0F5480078012872D1F4487D
:1025F000807832380E90F2484178F2480078081A14
:102600000790FFF73BFEEF49097808447F3800B296
:102610000D90EB48C078EC490978401A0790FFF715
:102620002DFEE949097808447F3800B20C90E4484F
:102630000178E6480078081A0790FFF71FFEE34983
:10264000097808447F3800B20B900B980790002857
:1026500001DB079801E007984042322803DD0120A2
:10266000DB4908700CE00B980790002801DB079805
:1026700001E0079840420A2802DA0020D449087095
:102680000D980790002801DB079801E00798404269
:10269000322803DD0120CF4908700CE00D98079027
:1026A000002801DB079801E0079840420A2802DA77
:1026B0000020C84908700C980790002801DB079893
:1026C00001E007984042322805DD0120C249087028
:1026D0000EE019E115E00C980790002801DB07983F
:1026E00001E0079840420A2802DA0021BA48017046
:1026F000B748007868B30020B8494861B8494860D5
:1027000027E0AE480078C92823D1AD488078322828
:1027100012DDB44800780A2805DAB2480078401C77
:10272000B04908700DE00020AE490870A4488078D8
:10273000401EA349887004E00020A14988709F4989
:1027400008709F48807832380E9000200D900C90D1
:102750000B90974909780E98401A00B20E900B988A
:1027600005F0F2FC0490A048C0680146039004986C
:1027700005F04AFD06900D9805F0E6FC02909A4897
:10278000406801460190029805F03EFD04900E98C5
:1027900005F0DAFC02909448006801460190029826
:1027A00005F032FD0390049905F032FE059006997C
:1027B00005F02EFE079005F08BFC00B212900B98EE
:1027C00005F0C2FC04908848C06801460390049854
:1027D00005F01AFD06900D9805F0B6FC02908248AF
:1027E000406801460190029805F00EFD04900E9895
:1027F00005F0AAFC02907C4800680146019002980E
:1028000005F002FD0390049905F032FB059006994E
:1028100005F0FEFD079005F05BFC00B211900B98EF
:1028200005F092FC04907048C0680146039004983B
:1028300005F0EAFC06900C9805F086FC02906A48C8
:10284000806801460190029805F0DEFC04900E9825
:1028500005F07AFC029064480068014601900298F5
:1028600005F0D2FC0390049905F002FB059006994F
:1028700005F0FEFA079005F02BFC00B210900B98C3
:1028800005F062FC04905848C06801460390049823
:1028900005F0BAFC06900C9805F056FC02905248E0
:1028A000806801460190029805F0AEFC04900E98F5
:1028B00005F04AFC02904C480068014601900298DD
:1028C00005F0A2FC0390049905F0A2FD059006997D
:1028D00005F0CEFA079005F0FBFB00B20F900E98C2
:1028E000462809DA46210E9890FBF1F0079005F092
:1028F0002BFC3E49086003E04FF07E503B490860E6
:102900004FF07E50394908603948016837480068FF
:1029100005F07AFC07903448006901460690079854
:1029200005F072FC0A90324801683048006805F0F2
:102930006BFC07902C48406901460690079805F00B
:1029400063FC09902548406901460490099805F008
:102950005BFC069021480069014602900A9805F048
:1029600053FC0490129805F0EFFB0390049905F0D6
:102970007FFA0590069905F07BFA079005F0A8FB11
:1029800000B212901548406901460490099805F07C
:102990003BFC069011480069014602900A9829E024
:1029A0000000AF43780000200000B9430000A040C1
:1029B0008000002086000020880000208E0000207B
:1029C0007C01002068000020690000206A000020CF
:1029D0008A0000208B0000208C0000209402002040
:1029E000880100208100002050020020700000209B
:1029F0007400002005F008FC0490119805F0A4FB79
:102A00000390049905F004FD0590069905F030FA4D
:102A1000079005F05DFB00B21190FF484069014648
:102A20000490099805F0F0FB0690FB48C068014649
:102A300002900A9805F0E8FB0490109805F084FBDA
:102A40000390049905F0E4FC0590069905F0E0FC7C
:102A5000079005F03DFB00B21090EF484069014639
:102A60000490099805F0D0FB0690EB48C068014639
:102A700002900A9805F0C8FB04900F9805F064FBDB
:102A80000390049905F0F4F90590069905F0C0FC4F
:102A9000079005F01DFB00B20F90E048006806901B
:102AA000DD4800690590069905F0B2FC0790DC4806
:102AB000006801460690079805F0DAF9D8490860E1
:102AC000D64880680690D448C0680590069905F0FD
:102AD0009FFC0790D248806801460690079805F051
:102AE000C7F9CF498860CC484069079008464068DC
:102AF0000690079905F0BCF9C9494860C9480168C2
:102B0000C948006805F080FB0790C8488069014605
:102B10000690079805F078FB0A90C2480168C24801
:102B2000006805F071FB0790C048C0690146069037
:102B3000079805F069FB0890B94840680146049081
:102B4000089805F061FB0690B548006801460290C0
:102B50000A9805F059FB0490129805F0F5FA0390D5
:102B6000049905F085F90590069905F081F907901B
:102B700005F0AEFA00B21290A948406801460490F0
:102B8000089805F041FB0690A548006801460290B0
:102B90000A9805F039FB0490119805F0D5FA0390D6
:102BA000049905F035FC0590069905F061F9079048
:102BB00005F08EFA00B211909948406801460490E1
:102BC000089805F021FB0690954880680146029020
:102BD0000A9805F019FB0490109805F0B5FA0390D7
:102BE000049905F015FC0590069905F011FC079075
:102BF00005F06EFA00B210908948406801460490D2
:102C0000089805F001FB069085488068014602900F
:102C10000A9805F0F9FA04900F9805F095FA0390D8
:102C2000049905F025F90590069905F0F1FB079048
:102C300005F04EFA00B20F9000200790069000E0D9
:102C4000C6E1754800687A49049005F0DDFA059000
:102C50007348006801460490059805F0D9FB079079
:102C60006D4840687249049005F0CEFA05906C48B2
:102C7000806801460490059805F0CAFB06904FF065
:102C80008341079805F062F907904FF08341069859
:102C900005F05CF90690624800680590079905F018
:102CA000E7F85F49086008468068059000E08EE11B
:102CB000069905F0DDF85A4988605E480078F0BB57
:102CC0005D480078D8BB08468089401C888108464A
:102CD00000680790594800680690079905F0C8F801
:102CE000564908604E4880680790084680680690FC
:102CF000079905F0BDF8514988604748006807907A
:102D00004F4800680690079905F0B2F84C490860F2
:102D1000414840680790084680680690079905F08A
:102D2000A7F8474988603E488089642872DD0846D4
:102D300000684449049005F009F9434900E032E194
:102D4000059005F061FA069005F0C2F900B23F491E
:102D500008803B4880683B49049005F0F7F83A4901
:102D6000059005F051FA069005F0B2F900B2374926
:102D70004880324800683349039005F0E7F8059031
:102D80002F4800682A49029005F03EFA2D49039029
:102D900005F0DCF80490059905F03AFB2949069006
:102DA00005F0D4F81D49086024488068254903903F
:102DB00005F0CCF80590224880681D49029005F086
:102DC00023FA2049039005F0C1F80490059905F015
:102DD0001FFB1C49069005F0B9F8104988600846A9
:102DE00000684FF08441069005F0E1FA03D24FF0FD
:102DF00084400A490860094800684FF04241069043
:102E000005F0CEF903D24FF0424004490860034870
:102E100080681DE0DAE0000094020020B801002084
:102E20008801002074000020700000205002002063
:102E300000002C438B0000208C0000209801002013
:102E4000A80100200000C842000020419C00002092
:102E50004FF08441069005F0AAFA03D24FF0844067
:102E6000FF498860FE4880684FF04241069005F0B7
:102E700097F903D24FF04240F9498860F948006859
:102E80000390F94800680290039905F0C1FA049094
:102E900005F01EF90590002801DB059801E0059872
:102EA0004042B0F57A7F2ADAEE480068049005F0D7
:102EB0000FF90690002801DB069801E006984042D1
:102EC000B0F57A6F1BDAE7480068E849069005F02C
:102ED0003DF807904FF08141079805F068FA02D25B
:102EE0004FF081400790E249079805F059F901D267
:102EF000DF480790079880F00041DE480161D9481B
:102F000080680390D84880680290039905F080FAA1
:102F1000049005F0DDF80590002801DB059801E03C
:102F200005984042B0F57A7F2ADACE48806804904E
:102F300005F0CEF80690002801DB069801E006981F
:102F40004042B0F57A6F1BDAC6488068C7490690E0
:102F500004F0FCFF07904FF08141079805F027FA35
:102F600002D24FF081400790C149079805F018F947
:102F700001D2BF480790079880F00040BD49C86063
:102F8000B948B84C1ECC1EC0BB4900200860486040
:102F90008860C860B349086048608860C8600021E4
:102FA000B648818112E0AE48002101604160816035
:102FB000C160AC48016041608160C160AA480160A5
:102FC00041608160C1600020AD49088000BF00BF42
:102FD0001298FFF74AF900EBC0008004000CA949E1
:102FE00008801198FFF741F900EBC0008004000C45
:102FF000A54908801098FFF738F900EBC00080045D
:10300000000CA24908800F98FFF72FF900EBC000D1
:103010008004000C9E49088014B010BD2DE9F041D9
:10302000002413E09B4931F8140005F0A5F805468B
:10303000994931F8140005F09FF80646294604F036
:1030400085FF964941F82400601CC4B20B2CE9D3DB
:1030500093A0FDF7C1FC002413E08E4931F8140061
:1030600005F08AF807468D4850F82410384605F0D8
:10307000CBF8064605F02CF80546FDF71BFC601C56
:10308000C4B20B2CE9D3BDE8F08106208249088048
:103090000F20488088801420C8803220088150206A
:1030A00048814FF4967088814FF44870C8810020A1
:1030B00008824882888242F65600C882704710B55E
:1030C000FEF75AF97448C08AA0F52051563901D04C
:1030D000012000E0002050F0010014D0FFF7D5FFE0
:1030E000FEF783F9FEF748F970A0FDF775FC0024A0
:1030F00006E0694931F81400FDF7DCFB601CC4B23E
:103100000C2CF6D300BFFFF789FF10BD10B55B484C
:103110000021016041608160C160FEF784FC00F025
:1031200099FC6648008866490880FFF7C8FF1822A6
:103130006449654803F03FFEFEF738FB0120634910
:10314000087063A0FDF748FC10BDFFF7DFFF64487F
:10315000006840F480506349C1F80C0C0846D0F870
:103160000C0C40F40050C1F80C0C0846D0F80C0CC4
:1031700040F00400C1F80C0C8AE15B48007810B103
:1031800000205949087059480078012845D100208D
:1031900056490870FEF748FB4B4A5168494A506847
:1031A00004F066FE04464FF0804104F0CFFE46492D
:1031B00048600A461168434A106804F059FE044604
:1031C0004FF0804104F0C2FE3F4908600A46D168D2
:1031D0003C4AD06804F04CFE04464FF0804104F0B5
:1031E000B5FE3949C8600A461169364A106904F0CB
:1031F0003FFE04464FF0804104F0A8FE32490861CA
:103200000A4651692F4A506904F032FE04464FF0D5
:10321000804104F09BFE2C49486135480078012824
:1032200001D100F092FA3348007820B100203149F2
:103230000870FFF735F83048007838B12F4800782B
:1032400020B100202C490870FEF71DFF2C480078A3
:103250000D2860DD00202A4908702848007851E0D8
:10326000B8010020A8010020E80100200000164459
:10327000000080C064010020980100208801002027
:103280005A0000206000002062000020640000203E
:1032900066000020148600087C02002050020020F6
:1032A0005049445F6F75743A000000005049445F14
:1032B0007365746461756C7421000000BE000020A9
:1032C0006E0000204C010020940200206C000020C1
:1032D0007379735F737461725F72756E21000000A1
:1032E0000C0C0140000001400600002044000020BA
:1032F000BB00002084000020830000208600002006
:103300008700002028B96348007808B1FEF733FF32
:1033100001E0FEF769FF60480078B8B300205E491D
:1033200008705E49088804F0FDFA804600225C4B74
:1033300004F02CF9064600225A4B04F043FB0446E5
:103340000022594B04F03EFB824604F0A7FA57498D
:10335000088008460088B0F5B97F06DA544800783E
:1033600050B902205249087006E0514800780228FE
:1033700002D100204E4908704E4800884B49098808
:10338000884203D0494800884A4908804A48407822
:1033900000282ADD48484078042826DA4748007883
:1033A000C82801D1012000E000204449097809B96A
:1033B000012100E00021084317D03F48407805284C
:1033C0000FDA02F0EBF801203D49087000F093FDA0
:1033D0002621394803F021FD00203949087002F008
:1033E000E1F800203749088052E03348407803284C
:1033F00017DD314840780A2813DA2F48407803282F
:103400000BDD01202E49087000F075FD26212A48A9
:1034100003F003FD00202A49087000202949088094
:1034200036E0254840780A2826D127480079012827
:103430001ED12548007825498870234880787F3040
:1034400048702148C0787F30C8701F4840787F306E
:10345000087000201C4908711D480078052804DA0E
:103460001B480078401C1A4908700120194908704F
:103470000020144908800BE017480078012807D184
:103480001648007820B100201349087013490870CD
:1034900073E6704788000020F8000020000100203B
:1034A0000000A04000A07440000024407C000020E8
:1034B0006B0000207E000020AC0200208E00002067
:1034C0000201002034000020960000207C01002032
:1034D00085000020860000208200002032000020AD
:1034E0002DE9F05FFF48B0F90000FF49B1F9001085
:1034F000884204DDFB48B0F90000FB490880F94828
:10350000B0F90000F949B1F90010884204DAF54831
:10351000B0F90000F5490880F548B0F90000F54918
:10352000B1F90010884204DDF148B0F90000F1491A
:103530000880EF48B0F90000EF49B1F90010884267
:1035400004DAEB48B0F90000EB490880EB48B0F929
:103550000000EB49B1F90010884204DDE748B0F9FA
:103560000000E7490880E548B0F90000E549B1F9F5
:103570000010884204DAE148B0F90000E14908800F
:10358000E1A0FDF729FAD848B0F90000FDF792F95B
:10359000D648B0F90000FDF78DF9DDA0FDF71CFA63
:1035A000D448B0F90000FDF785F9D348B0F9000020
:1035B000FDF780F9D8A0FDF70FFAD148B0F9000067
:1035C000FDF778F9CF48B0F90000FDF773F9CA4864
:1035D000B0F9000004F08FF904460D46C548B0F973
:1035E000000004F088F9064622462B4604F02AFB28
:1035F00080468946BD48B0F9000004F07CF90446D5
:103600000D46B948B0F9000004F075F906462246A7
:103610002B4604F017FB824642464B4603F0B6FFAA
:10362000BF4A03C2BFA0FDF7D7F90022C04BBC4977
:1036300003C904F0C7F9044604F000F90646FDF793
:1036400039F90D20FDF7D2F80A20FDF7CFF8BDE8D3
:10365000F09F70B504460D462A4621463C20FDF7F2
:1036600036FC70BD10B50446022C00DD10BD2146AD
:103670000220FFF7EEFF6420FDF799FC00BFF5E79D
:1036800010B50220FFF7EEFF0020FFF7EBFF10BDA3
:1036900010B5A8480078272805DAA6480078401C0D
:1036A000A449087007E00020A2490870FFF7E8FF6E
:1036B0000120A149087010BD10B5A0A0FDF78CF93C
:1036C0003EE0A3480078012832D1A248006880F08B
:1036D0000200A149C1F80C0C4FF000009C49087091
:1036E000944908709D4B4FF006024FF003014FF0D4
:1036F0003C00FDF753FB994840789849097840EA27
:10370000012000B2774908809448407993490979AB
:1037100040EA012000B2764908809048C0788F497D
:10372000897840EA012000B274490880FFF7D8FE8A
:103730008148007820B100207F490870FFF7A0FF82
:10374000874800780028BCD010BD2DE9FC5F804878
:10375000007801287ED100207D49087075490870E5
:103760007E4B062203213C20FDF718FB7B48407866
:103770007A49097840EA012000B25A49088077481E
:1037800040797649097940EA012000B25849088019
:103790007248C0787149897840EA012000B25749DF
:1037A00008805149B1F90010504AB2F900208E1832
:1037B00006EBD6714B4AB2F90020A2EB610004F08F
:1037C000C3FC074604F084FC00B24649088049491E
:1037D000B1F90010484AB2F900208E1806EBD671F4
:1037E000434AB2F90020A2EB610004F0ADFC0746A9
:1037F00004F06EFC00B23E4908804149B1F9001066
:10380000404AB2F900208E1806EBD6713B4AB2F955
:103810000020A2EB610004F097FC074604F058FC7E
:1038200000B2364908802F48B0F900002D490880C1
:103830002F48B0F9000004F05EF8804638480CC804
:10384000404604F0BFF8064603F0F8FF00B22849EE
:10385000088000E0FCE02348B0F9000004F04BF8D9
:10386000804689462248B0F9000004F044F88246B8
:1038700042464B4603F0DEFC06463A4A3A4B04F019
:10388000A1F80022394BCDE9000103F0C5FD044643
:103890000D463748007818B33648C0C822462B4634
:1038A0003046394604F0CEF9804603F0C7FFB0F148
:1038B000000A01DB504601E0CAF10000B42865DDD2
:1038C00000222A4B2046294604F040F856D2002216
:1038D000294B3046394604F0B5F906460F4655E007
:1038E00076E00000A8000020AE000020B400002018
:1038F000AA000020B0000020B6000020AC0000208C
:10390000B2000020B80000206D617820583A000015
:103910006D617820593A00006D6178205A3A0000B4
:10392000C8000020795F7363616C653A0000000095
:103930000088C340C0000020C1000020484D43352E
:103940003838335F436972636C696E67212F0000FA
:10395000BB0000200C0C014000000140E8000020EA
:1039600006000020775AF01ADCA54C400080664023
:10397000BA000020F0000020008076400022CA4BF0
:103980003046394603F048FD06460F4600224FF008
:1039900080433046394604F015F8804622462B46CF
:1039A00003F03AFD82460022C04B03F0EFFDC04A0F
:1039B00003C2BF4903C903F041FF0FFA80F948462B
:1039C00000F0C0F9804603F096FFB94A03C201E057
:1039D000B74830C000221346B54903C903F0B6FF0B
:1039E00007D20022B04BB24903C903F015FDB04A1B
:1039F00003C20022AC4BAE4903C904F0E1F807D280
:103A00000022A94BAA4903C904F01CF9A84A03C221
:103A1000A74903C903F042FFA64908800120A6492F
:103A20000870A6A0FCF7D8FFA2480088FCF742FF68
:103A3000A4A0FCF7D1FFA649486904F049FB06465B
:103A4000FCF738FF0D20FCF7D1FE0A20FCF7CEFE74
:103A5000BDE8FC9F70B5002500249EA0FCF7BCFFCC
:103A600029E094480088854203D0002491480588C5
:103A700001E0601CC4B200BF9A4800780028FBD067
:103A800098480078012802D100BFFFF75EFE96A09B
:103A9000FCF7BBFF2046FCF70DFF86480088FCF7CB
:103AA00009FF0320FDF790FA9448006880F00200B7
:103AB0009349C1F80C0C062CD3DB9048006840F009
:103AC00002008F49C1F80C0C4FF00A00FDF789FA8B
:103AD0008CA0FCF781FF70BD10B50446072C00DDFB
:103AE00010BD6007010E0120FFF7B3FD00BFF7E72F
:103AF00010B504460520FDF75AFA14B10020FFF76F
:103B0000B1FD70210020FFF7A4FDA0210120FFF7E7
:103B1000A0FD00210220FFF79CFD10BD70B50546F9
:103B200011210020FFF795FD2846FFF7D5FF002063
:103B3000FFF798FD002408E000BF6A4800780028DD
:103B4000FBD0FFF702FE601C04B2052CF4DB12214F
:103B50000020FFF77EFD2846FFF7BEFF0020FFF79D
:103B600081FD002408E000BF5E4800780028FBD0FB
:103B7000FFF7EBFD601C04B2052CF4DB10210020E4
:103B8000FFF767FD70BD10B50446062C00DD10BDC3
:103B9000A006010E0020FFF75CFD00BFF7E710B59F
:103BA0005DA0FCF719FF0A213C20FDF7D4F804467C
:103BB000FCF780FE0D20FCF719FE0A20FCF716FE2C
:103BC0000B213C20FDF7C7F80446FCF773FE0D20DF
:103BD000FCF70CFE0A20FCF709FE0C213C20FDF747
:103BE000BAF80446FCF766FE0D20FCF7FFFD0A203C
:103BF000FCF7FCFD0D20FCF7F9FD0A20FCF7F6FDB3
:103C000010BD1FB50121042001F0A3FF0220ADF873
:103C10000C0004208DF80F0003A9434801F0D2FAEC
:103C20000121002001F0D2FB0220009000208DF83D
:103C3000040008208DF8050001208DF80600684674
:103C400000F01DFF4FF4C06001F035FC07208DF837
:103C5000080002208DF8090001208DF80A008DF877
:103C60000B0002A801F02CFC1FBD10B5FFF7C9FF27
:103C700000202E490870FFF73BFF0120FFF74EFFA1
:103C80000020FFF7EFFC6420FDF791F90620FFF715
:103C90007AFF3220FDF78BF901202449087024A017
:103CA000FCF79AFE10BD000000807640000008403E
:103CB000F0000020BE000020BC000020416E676CB8
:103CC000653A0000416363476965723A000000008D
:103CD0004C010020484D43353838335F5F726561D1
:103CE00064792100BB000020484D43353838335FEC
:103CF00073616D655F646174613A00000C0C014092
:103D000000000140484D4335383833207265616406
:103D10007920206F6B210000416457657274416304
:103D200063526F6C6C3A000000080140BA0000203A
:103D3000454E645F484D43353838334C5F536574A6
:103D400055702F00002802DA00F5B47108B2B0F502
:103D5000B47F02DDA0F5B47108B2704710B5024619
:103D60000020531A18B2031E01DB1C4600E05C421F
:103D7000B42C08DD8A4203DDA0F5B47318B202E06A
:103D800000F5B47318B210BD00B587B001214FF42F
:103D9000816001F0DEFE0120ADF8180000208DF8F2
:103DA0001B0006A9464801F00DFA12208DF800000C
:103DB00003208DF801008DF8020001208DF803002A
:103DC000684601F07DFB002001908DF808008DF819
:103DD00009000390049001208DF8140001A93948CE
:103DE00000F051FC072301221146364800F0E3FCA5
:103DF0000121344800F073FC324800F092FC00BF0F
:103E0000304800F093FC0028FAD12E4800F098FCCE
:103E100000BF2C4800F099FC0028FAD10121294864
:103E200000F025FD01224FF40871264800F06DFCDA
:103E30003220FDF7C9F8234800F024FD4010224944
:103E4000088007B000BD10B520480078B0B91D4803
:103E500000F018FD40101E491C4A127831F812106B
:103E600001EB810100EB41000B2190FBF1F081B2ED
:103E70001748164A127820F8121014E0114800F082
:103E800001FD1349114A127831F8121001EB81013A
:103E900001EB6000062190FBF1F081B20C480B4A67
:103EA000127820F8121001200A4908700A48074ABF
:103EB0001278815C07230122024800F07CFC10BDCF
:103EC000000C014000280140FC000020FE00002002
:103ED00000010020F80000202C86000810B50446E0
:103EE000FF48048000BF8021FD48001F02F0DBFE78
:103EF0000028F8D010BD70B58CB000240025FD203E
:103F0000FFF7ECFFDF20FFF7E9FF84F02204F5481C
:103F10004078012814D10125F2494878FFF7DEFFE7
:103F20002846FFF7DBFF6520FFF7D8FFED48407814
:103F3000684080F0650044402046FFF7CFFF9BE0DB
:103F4000E8484078022821D11825E6494878FFF74B
:103F5000C5FF2846FFF7C2FFE2484078684044406A
:103F60001822E14906A802F0E1FE002608E006A9B1
:103F7000885DFFF7B3FF06A8805D4440701CC6B2A1
:103F8000182EF4D32046FFF7A9FF75E0D5484078F6
:103F900003284CD10125D3494878FFF79FFF2846D5
:103FA000FFF79CFFCF484078684044401822CD4935
:103FB000083106A802F0BAFE182206A9684602F0E7
:103FC000FAFEBDF82E00A0F52051563926D1182250
:103FD000C549684602F0AAFE182206A9C24802F0A6
:103FE000A5FEFDF702FAFDF7C7F9BF48C08AA0F5A4
:103FF0002051563907D1FFF711F86520FFF76EFF02
:1040000084F0650409E018226946B74802F08EFE84
:104010006620FFF763FF84F0660404E06620FFF784
:104020005DFF84F066042046FFF758FF24E0AD48AA
:104030004078042820D10225AA494878FFF74EFF8E
:104040002846FFF74BFFA9480088C0B2FFF746FF9C
:10405000A64909880812FFF741FFA2484078684046
:10406000A2490988C9B24840A049098880EA2120AC
:1040700044402046FFF732FF0CB070BD70B5984841
:10408000001F02F0BDFDC4B29648007848BB9548B9
:10409000C178083044540838C078401C9149C87031
:1040A0000846C078012807D10846007AFD2802D0CA
:1040B0000020C8700870A6E08A48C07801280BDD8F
:1040C00000208849C8700846407ADF2805D1884812
:1040D000007810B90120087095E00020814908702F
:1040E00091E08048007801282FD102207D49087096
:1040F000012C04D1652048700846847083E0022CAE
:1041000005D1662077494870084684707BE0032C0F
:1041100005D16720734948700846847073E0042C09
:1041200005D168206F494870084684706BE00A2CFE
:1041300005D16E206B4948700846847063E000200A
:104140006849C870087048705DE0664800780228C9
:104150000DD1192C05D26348047103206149087000
:1041600051E000205F49C870087048704BE05D481E
:104170000078032847D15B48C17808304454083898
:10418000C078401C5749C8700846C1780079401C67
:10419000814238DB00255348807880F02200514965
:1041A0000979484045404F48007960B1002005E05A
:1041B0004C490831095C4D40411CC8B24949097954
:1041C0008142F5DC00BF4748C078401E45490831B0
:1041D000085CA84211D143484078643808394870D7
:1041E000084640780A2808D1084602790831414833
:1041F00002F09CFD01203F49087100203949887078
:104200000871C870087070BD10B504463448048049
:1042100000BF80213248001F02F045FD0028F8D081
:1042200010BD70B5044600250DE014F8010B2C49B3
:10423000088000BF80212A48001F02F034FD0028BA
:10424000F8D0681CC5B220780028EED12846FFF7C8
:10425000DBFF0D20FFF7D8FF0A20FFF7D5FF70BD69
:1042600010B504460BE014F8010B1D49088000BF8F
:1042700080211B48001F02F016FD0028F8D020788E
:104280000028F0D110BD10B504461548048000BFC9
:1042900080211348001F02F006FD0028F8D010BD51
:1042A00070B504460D46002600BF05E014F8010B6A
:1042B000FFF7E9FF701CC6B2AE42F7DB70BD00B578
:1042C00087B00121480401F051FC0121042001F0D4
:1042D00040FC0420ADF8080003208DF80A000BE034
:1042E00004440040AC0200207C0200207C0000203E
:1042F000020100209600002018208DF80B0002A972
:10430000204800F05FFF0820ADF8080004208DF879
:104310000B0002A91B4800F055FF4FF4E130039059
:104320000020ADF81000ADF81200ADF81400ADF8A3
:1043300018000C20ADF8160003A9134802F083FB07
:104340000121114802F0EDFB012240F225510E48F7
:1043500002F0F3FB4FF4C06001F0ADF826208DF8B9
:10436000040000208DF8050001208DF806008DF86E
:10437000070001A801F0A4F807B000BD10B5FFF7D1
:104380009EFF10BD000801400044004010B5102100
:104390009F4800F0A8FF10BD10B520219C4800F0F8
:1043A000A2FF10BD10B54021994800F09CFF10BD40
:1043B00010B58021964800F096FF10BD0020002126
:1043C00000BF0BE0934A125C32B14A1CD1B2914A51
:1043D000125C521E8F4B1A54421CD0B20428F1DBDF
:1043E000042909D18C4A12780A2A0DDA8A4A1278ED
:1043F000521C894B1A7007E0874A127822B1864A0C
:104400001278521E844B1A70704770B504464FF0F4
:10441000804002F0A9FA0546804951F824008047FF
:1044200001280AD17E48007840F25371484305EBD9
:1044300000107C4941F8240045E000BF7849097824
:1044400040F25372514305EB0110764951F82410A4
:10445000814205D9724909780A31514305EB0110AF
:10446000704951F82410411A8DB2B5F5487F01DA30
:10447000012100E0002140F69802954201DD012271
:1044800000E00022114303D00021624A115519E0D7
:10449000B5F5FA6F01DD4FF4FA65B5F57A7F01DA0B
:1044A0004FF47A75A5F57A718DB2C5F387015E4A2E
:1044B00011555849095D0A2904DA5649095D491C14
:1044C000544A115500BF70BD00B587B001210846A0
:1044D00001F04CFB1C208DF8140001208DF8150014
:1044E0008DF816008DF8170005A800F0E9FF47F2D7
:1044F0003050ADF80C004720ADF808000020ADF8B2
:104500000E00ADF80A0002A94FF0804001F019FD3D
:1045100001221146900701F094FF0121880701F064
:1045200075FF0121042001F014FBF020ADF8180004
:1045300004208DF81B0006A9354800F043FE042135
:10454000002000F043FF0521002000F03FFF06217E
:10455000002000F03BFF0721002000F037FFF02093
:10456000009000208DF8040010208DF80500012037
:104570008DF80600684600F082FA4FF4C06000F043
:104580009AFF0A208DF8140002208DF815000120F2
:104590008DF816008DF8170005A800F091FF172080
:1045A0008DF8140002208DF8150001208DF81600FA
:1045B0008DF8170005A800F083FF07B000BD08B50F
:1045C00000214FF0804001F021FF4FF4C06000F067
:1045D00072FF0A208DF8000002208DF801000120F2
:1045E0008DF8020000208DF80300684600F068FF97
:1045F00017208DF8000002208DF8010001208DF8B1
:10460000020000208DF80300684600F059FF08BD45
:10461000000801401A0100200501002008010020C7
:1046200004010020D40200201E01002010B5044621
:10463000F748201806D0B0F5806F0DD0B0F5C05FF8
:104640001ED113E00121480201F09DFA00214FF430
:10465000007001F098FA14E00121880201F093FA49
:1046600000214FF4806001F08EFA0AE00121C803B6
:1046700001F089FA00214FF4004001F084FA00E0D3
:1046800000BF00BF10BD30B50246002000235068B7
:10469000E04C20400D790C6844EA0524204350602A
:1046A0009068DD4C2040D1E902542C434D7944EA16
:1046B000450420439060D06A20F470000C7C641E96
:1046C0001C43E3B240EA0350D06230BD00210160D8
:1046D000017141718160C16001210174704721B194
:1046E000826842F00102826003E0826822F00102E7
:1046F0008260704721B1826842F48072826003E078
:10470000826822F480728260704710B50023CBB2B9
:104710001AB144681C43446002E044689C4344600E
:1047200010BD816841F0080181607047014600209A
:104730008A6812F0080F01D0012000E000207047C5
:10474000816841F0040181607047014600208A6859
:1047500012F0040F01D0012000E00020704721B1C9
:10476000826842F4A002826003E0826822F4A00220
:1047700082607047014600208A6812F4800F01D0E1
:10478000012000E00020704710B50A4600210023F8
:10479000416821F46041531E41EA4331416010BD3C
:1047A00021B1426842F40062426003E0426822F4B0
:1047B000006242607047F0B504460D4600200021BB
:1047C000092D11DDE068A5F10A0606EB460707266C
:1047D00006FA07F18843A5F10A0606EB460603FA36
:1047E00006F10843E0600CE0206905EB4507072669
:1047F00006FA07F1884305EB450603FA06F108437C
:104800002061072A0FDA606B561E06EB86071F260B
:1048100006FA07F18843561E06EB860605FA06F1EE
:104820000843606322E00D2A0FDA206BD61F06EBE7
:1048300086071F2606FA07F18843D61F06EB860671
:1048400005FA06F10843206310E0E06AA2F10D06C4
:1048500006EB86071F2606FA07F18843A2F10D062C
:1048600006EB860605FA06F10843E062F0BD21B1C9
:10487000826842F48012826003E0826822F480122F
:10488000826070470146C86C80B270476348006818
:10489000704721B1426842F48062426003E042689E
:1048A00022F480624260704721B1426842F4805233
:1048B000426003E0426822F48052426070470A4638
:1048C0000021816821F4E04111438160704721B1EA
:1048D000826842F40042826003E0826822F400426F
:1048E0008260704721B1826842F40212826003E064
:1048F000826822F4021282607047014600208A68B2
:1049000012F4001F01D0012000E000207047F0B534
:1049100004461546002000220026092911DDE06822
:10492000A1F10A0707EB470C072707FA0CF290439F
:10493000A1F10A0707EB470703FA07F21043E0600B
:104940000CE0206901EB410C072707FA0CF29043B9
:1049500001EB410703FA07F210432061A06BC0F39B
:104960000156EF1C06F1010CA7EB0C0707EB870CB7
:104970001F2707FA0CF29043EF1C06F1010CA7EB7E
:104980000C0707EB870701FA07F21043A063F0BD9D
:1049900010B50A4600210023816B21F44011531EFB
:1049A00041EA0351816310BD4250704702465018DE
:1049B000806A80B270470A4600214168184B19404E
:1049C0001143416070474162826270470A4600218C
:1049D000416821F01F0111434160704738B111490E
:1049E000096841F40001104AC2F8081406E00D49B4
:1049F000096821F400010C4AC2F808147047024605
:104A0000002013680B4201D0012000E00020704715
:104A100000DCFEBFFFFEF0FFFDF7F1FF4C2401407C
:104A2000FFFD3FFF0824014000200140CA4302600F
:104A3000704770B502460020002300240B12556811
:104A4000CEB205EA060415681D4202D00CB1012061
:104A500000E0002070BD00220A12D34303607047BB
:104A600000204F4908604F49C1F804044E490860CE
:104A700001F1040108604D484D4908607047817993
:104A8000F1B34849D1F8001402689143454AC2F88D
:104A900000141146D1F8041402689143454A11608C
:104AA0000179404A1144D1F80014026841EA020138
:104AB00002793C4B1A44C2F800141946D1F8081484
:104AC000026821EA02011A46C2F808141146D1F818
:104AD0000C14026821EA0201374A11604179102959
:104AE00012D11946D1F80814026811431A46C2F8C7
:104AF00008141146D1F80C14026811431A4600E05C
:104B00000FE0C2F80C1418E04179264A1144D1F89C
:104B10000014026811434279224B1A44C2F800146F
:104B20000BE001791F4A1144D1F800140268914347
:104B300002791C4B1A44C2F800147047002101602E
:104B400001710C2141710021817170471B49096875
:104B500041EA0001134AC2F81014704701460020D0
:104B6000134A12680A4201D0012000E00020704779
:104B70000F4908607047014600200022084B1B685F
:104B800003EA0102074BD3F814340B4202D00AB1F6
:104B9000012000E0002070470549086070470000D0
:104BA000000401400000014008040140FFFF07002D
:104BB00014040140040401400C04014010040140AD
:104BC000FA49096801F03801F84A1160114609688C
:104BD000014311607047F549096821F00801F34A63
:104BE000116011460968014311607047EF49096877
:104BF00021F01001ED4A116011460968014311606E
:104C00007047EB48E9494860EA4848607047E74820
:104C1000006940F08000E549086170470420E349DD
:104C2000C96801F00101012901D101200EE0DF492D
:104C3000C96811F0040F01D0022007E0DB49C96800
:104C400011F0100F01D0032000E004207047002075
:104C5000FF2000E0401E0028FCD1704770B50446DC
:104C60000425FFF7DBFF054605E0FFF7F0FFFFF740
:104C7000D5FF0546641E012D01D1002CF5D104B9E4
:104C80000525284670BD70B50546042440F6FF7022
:104C9000FFF7E4FF0446042C19D1C448006940F032
:104CA0000200C249086108464561006940F04000C1
:104CB000086140F6FF70FFF7D1FF0446012C06D0D3
:104CC000BA48006941F6FD710840B84908612046BC
:104CD00070BD10B5042440F6FF70FFF7BFFF044617
:104CE000042C18D1B148006940F00400AF490861B4
:104CF0000846006940F04000086140F6FF70FFF789
:104D0000ADFF0446012C06D0A848006941F6FB71AE
:104D10000840A6490861204610BD10B5042440F69D
:104D2000FF70FFF79BFF0446042C3CD1A0489F492D
:104D30008860A04888600846006940F0200008614B
:104D40000846006940F04000086140F6FF70FFF738
:104D500085FF0446042C1DD19448006941F6DF719B
:104D60000840924908610846006940F01000086157
:104D7000A520914908804FF00F00FFF76FFF044610
:104D8000012C10D08948006941F6EF71084087492D
:104D9000086108E0012C06D08448006941F6EF71F3
:104DA000084082490861204610BD70B505460E4690
:104DB00004240F20FFF752FF0446042C25D17B4822
:104DC000006940F00100794908612E800F20FFF74B
:104DD00045FF0446042C0FD1300C68800F20FFF7EC
:104DE0003DFF0446012C10D07048006941F6FE7169
:104DF00008406E49086108E0012C06D06B48006944
:104E000041F6FE71084069490861204670BD70B5E1
:104E100005460E4604240F20FFF720FF0446042C0D
:104E200013D16248006940F00100604908612E809A
:104E30000F20FFF713FF0446012C06D05B480069E2
:104E400041F6FE71084059490861204670BD70B5B1
:104E500005460E4604240F20FFF700FF0446042CED
:104E600017D1534851498860524888600846006904
:104E700040F0100008612E800F20FFF7EFFE04467F
:104E8000012C06D04948006941F6EF7108404749B6
:104E90000861204670BD2DE9F04704464FF6FF76C5
:104EA0003746B046B1460425E443E6B2C4F30727CB
:104EB000C4F307484FEA14690F20FFF7CFFE0546F9
:104EC000042D3ED13A48394988603A4888600846FE
:104ED000006940F010000861FF2E06D037480680B8
:104EE0004FF00F00FFF7BAFE0546042D08D1FF2F43
:104EF00006D0334807804FF00F00FFF7AFFE05469E
:104F0000042D09D1B8F1FF0F06D02E48A0F80C8867
:104F10000F20FFF7A3FE0546042D09D1B9F1FF0FBD
:104F200006D02848A0F80E980F20FFF797FE0546F8
:104F3000012D06D01D48006941F6EF7108401B495C
:104F400008612846BDE8F08770B50546042440F6A0
:104F5000FF70FFF783FE0446042C50D11448134918
:104F60008860144888600846006940F020000861A5
:104F70000846006940F04000086140F6FF70FFF706
:104F80006DFE0446042C31D10848006941F6DF71FA
:104F90000840064908610846006940F010000861B1
:104FA00095B100200449088011E000000020024073
:104FB00023016745AB89EFCD00F8FF1F08F8FF1FFD
:104FC0000AF8FF1F00F0FF1FA5204549088040F6A2
:104FD000FF70FFF743FE0446012C10D041480069E2
:104FE00041F6EF7108403F49086108E0012C06D006
:104FF0003C48006941F6DF7108403A4908612046A3
:1050000070BD2DE9F04107460D461646042436488A
:1050100034498860354888600F20FFF71FFE04463A
:10502000042C1AD12F48006940F010002D49086166
:1050300047EA0500304340F0F8002D4908804FF062
:105040000F00FFF70BFE0446012C06D0254800692F
:1050500041F6EF710840234908612046BDE8F08120
:105060002048C069800870471E48006A70470020C9
:105070001C49C96911F0020F01D0012000E0002095
:10508000704700201749096811F0200F01D0012056
:1050900000E00020704729B1124A12690243114B07
:1050A0001A6104E00F4A126982430E4B1A6170477D
:1050B00001460020012908D10A4AD26912F0010FE5
:1050C00001D0012008E0002006E0064AD2680A422A
:1050D00001D0012000E0002070470249C8607047FD
:1050E00000F8FF1F0020024023016745AB89EFCD88
:1050F00002F8FF1F10B50446C549601A8C422FD034
:1051000009DCC448201810D0B0F5806F16D0B0F577
:10511000006F4AD11BE0B0F5806F2AD0B0F5006F68
:1051200030D0B0F5406F40D135E00121042000F0CF
:105130002AFD0021042000F026FD37E0012108208F
:1051400000F021FD0021082000F01DFD2EE00121CE
:10515000102000F018FD0021102000F014FD25E0C3
:105160000121202000F00FFD0021202000F00BFD88
:105170001CE00121402000F006FD0021402000F04D
:1051800002FD13E00121802000F0FDFC00218020C1
:1051900000F0F9FC0AE00121080200F0F4FC002113
:1051A0004FF4807000F0EFFC00E000BF00BF10BDC6
:1051B00010B50121084600F0E6FC0021012000F0B6
:1051C000E2FC10BD2DE9F04102460025002600203A
:1051D00000230024002791F803C00CF00F0591F87C
:1051E00003C01CF0100F03D091F802C04CEA050573
:1051F000B1F800C01CF0FF0F31D0146800202BE084
:105200004FF0010C0CFA00F3B1F800C00CEA0306F1
:105210009E4220D183004FF00F0C0CFA03F7BC43E1
:1052200005FA03FC4CEA040491F803C0BCF1280F12
:1052300006D14FF0010C0CFA00FCC2F814C00AE0D1
:1052400091F803C0BCF1480F05D14FF0010C0CFAE6
:1052500000FCC2F810C0401C0828D1D31460B1F87B
:1052600000C0BCF1FF0F34DD546800202EE000F1D7
:10527000080C4FF0010808FA0CF3B1F800C00CEA72
:1052800003069E4221D183004FF00F0C0CFA03F766
:10529000BC4305FA03FC4CEA040491F803C0BCF1DA
:1052A000280F05D100F1080C08FA0CF8C2F8148098
:1052B00091F803C0BCF1480F07D100F1080C4FF082
:1052C000010808FA0CF8C2F81080401C0828CED358
:1052D0005460BDE8F0814FF6FF71018002218170BA
:1052E0000421C17070470246002093680B4201D030
:1052F000012000E0002070470146886880B27047B6
:1053000002460020D3680B4201D0012000E00020BB
:1053100070470146C86880B27047016170474161BB
:1053200070470AB1016100E041617047C160704798
:105330004FF480320A4382618161826182698269AD
:10534000704702460020344B18684FF680731840AF
:1053500040EA02100843304B186070472F49C8617B
:105360007047F0B50A4600230024002100252A4E8C
:105370007168C0F3034583B200F44016B6F5401FD0
:1053800008D121F07061244E766826F07066224FB5
:105390007E6012E000F48016B6F5801F06D1032669
:1053A00006FA05F4A14341F0706106E0460D3601AE
:1053B00003FA06F6B14341F0706122B1460D3601A1
:1053C00003FA06F63143144E7160F0BD30B5002289
:1053D0008B071C0F0F2303FA04F20F4B08338C10BA
:1053E00053F8243093430C4C08348D1044F8253086
:1053F00023468C1053F824308C07240F00FA04F451
:105400002343054C08348D1044F8253030BD00008E
:105410000014014000F8FEBF0000014000002042DF
:105420000020411EF84A11606FF07042F749C1F840
:1054300084204FF0FF314FF0E022C2F880126FF06D
:105440007042F3490A6000BF04E00022F14941F8CC
:105450002020401C0F28F8D3704700204FF0206117
:10546000ED4A116001464FF0E022C2F8081DEB49F9
:10547000EB4A1160014602F10402116002F10402DC
:10548000116000BF05E00022E5490C3141F8202001
:10549000401C0328F7D30021E24A11604FF0FF318E
:1054A0004FF0E022C2F8281DDF4A11604FF0E022E1
:1054B000C2F8301D7047D9490143D94A116070477D
:1054C000F0B500210022002300250F24C678EEB39A
:1054D000D34E366806F4E066C6F5E0664FEA16215C
:1054E000C1F1040524FA01F4467806FA05F186783C
:1054F00006EA040646EA01014FEA011106784FEA7E
:1055000086764FEAD66601FA06F1C24E07784FEA70
:10551000A70756F8272006784FEA86764FEAD6671F
:105520004FF0FF0606FA07F322EA030201EA03013D
:1055300042EA0102B74E07784FEAA70746F827204C
:10554000067806F01F074FF0010600E00BE006FAB0
:1055500007F607784FEA67174FF0E02C0CEB870748
:10556000C7F800610BE0067806F01F070126BE4071
:10557000A54F90F800C04FEA6C1C47F82C60F0BDB6
:105580000021017041708170C170704710B5FAF749
:1055900066FE10BD10B5FAF760FE10BD10B5FAF743
:1055A00063FE10BD10B5FAF761FE10BD10B50446DC
:1055B0002001FAF760FE10BD10B5FAF75FFE10BDCE
:1055C00095480068C0F30930704710B501460020C7
:1055D000002201F01F04012303FA04F28A4B8033F6
:1055E0004C1153F824301340934201D1012000E0C4
:1055F000002010BD8D490860704700F01F02012196
:105600009140834A121F431142F823107047824889
:105610000068C0F30900704710B501460020002261
:1056200001F01F04012303FA04F2794B7C334C117F
:1056300053F824301340934201D1012000E00020B0
:1056400010BD7B48006870477A4A0A4002437A4B93
:105650001A6070477148001D7149086070476F48B3
:10566000401C6F490860704741B1744A126842EAB1
:1056700000024FF0E023C3F8102D07E06F4A1268D4
:1056800022EA00024FF0E023C3F8102D704710B556
:10569000002200F01F04012303FA04F241B1614B20
:1056A0001B6843EA02034FF0E024C4F8243D07E0FE
:1056B0005C4B1B6823EA02034FF0E024C4F8243D4E
:1056C00010BDF0B503460C4615460020FF2200260B
:1056D0000021534F3F6807F4E067C7F5E0674FEAE2
:1056E0001721C1F1040022FA01F204FA00F105EADF
:1056F000020747EA01014FEA011103F0C0004FEA37
:105700009010C3F301224FEAC20701FA07F14FEAF2
:10571000C20C4FF0FF0707FA0CF6494F57F82070FC
:1057200027EA0607DFF818C14CF82070674657F8DB
:10573000207047EA01074CF82070F0BD10B5024612
:10574000002000230021910A01F00F01012404FA36
:1057500001F1344C246804EA01038B4201D1012099
:1057600000E0002010BD002100F01F012A4A12684D
:105770004FF0010303FA01F342EA03024FF0E02382
:10578000C3F8042D704710B5002100F01F01224A14
:105790001268A1F101034FF0010404FA03F442EA94
:1057A00004024FF0E023C3F8042D10BD10B50246EB
:1057B000002000230021C2F38331012404FA01F107
:1057C000184C246804EA01038B4201D1012000E057
:1057D000002010BD30B50146002000220023C1F397
:1057E0008142C1F3015312B90F4C206830E0012A05
:1057F0002CD1144C24684FEAC30524FA05F0022B7F
:1058000022D000F00F0023E080E100E000E100E0A2
:1058100084E200E000E400E004ED00E00000FA05AE
:105820000CED00E024ED00E02CED00E000EF00E0E6
:1058300000ED00E080FFFF1F08ED00E010ED00E04C
:1058400018ED00E028ED00E0C0B201E0074C206850
:1058500030BD014600200022C1F3805212B9044B32
:10586000186801E0034B18687047000030ED00E055
:1058700034ED00E038ED00E0DE48006840F0010063
:10588000DC49086008464068DB490840D94948605F
:1058900008460068D9490840D649086008460068AB
:1058A00020F4802008600846406820F4FE0048602C
:1058B000002088607047CF49096821F48031CD4AC3
:1058C00011601146096821F480211160B0F5803F14
:1058D00003D0B0F5802F0ED106E0C649096841F427
:1058E0008031C44A116007E0C249096841F4A0212F
:1058F000C04A116000E000BF00BF704710B501460C
:105900000022002300204A11012A02D1B94C236849
:1059100006E0022A02D1B74C236A01E0B54C636A63
:1059200001F01F02012494401C4201D0012000E03C
:10593000002010BD10B5002400BF3120FFF7DEFFAE
:10594000AF490870AF480068401CAE490860AC48D9
:10595000007828B908460068A0F58071FF39ECD1BD
:105960003120FFF7CBFF08B1012400E000242046DE
:1059700010BD014600209F4A106820F0F80040EA60
:10598000C10010607047A0490860704702460020BF
:10599000984B586820F47C1042EA01031843954B59
:1059A0005860704798490866704701460020914A40
:1059B000506820F003000843506070478D484068ED
:1059C00000F00C007047014600208A4A506820F021
:1059D000F00008435060704701460020854A506837
:1059E00020F4E06008435060704701460020814A7F
:1059F000506820F4605040EAC1005060704729B1FF
:105A00007C4A527A02437B4B5A7206E0794A527AB8
:105A1000C343DBB21A40774B5A7270477B49086028
:105A2000704701460020734A506820F44040084304
:105A3000506070470021764A11706E4A82F820103B
:105A4000012802D0042808D103E00121704A117016
:105A500004E005216E4A117000E000BF00BF7047EE
:105A60006C49086070476349096A0143614A1162E1
:105A7000704769490860704730B500210022002452
:105A800000235C4D6D6805F00C0121B1042905D09F
:105A9000082923D105E0614D056022E05F4D0560D6
:105AA0001FE0544D6D6805F47012022505EB92421B
:105AB000504D6D6805F480341CB9594D554305604F
:105AC0000BE04C4D6D6815F4003F03D0544D554329
:105AD000056002E0514D5543056002E04F4D056001
